:02000000FD2BD6
:10077A00831687019101831287018312A301A401C1
:10078A0083122318C92BCA2BD92B2A30870002308F
:10079A00A2008630A1009930A000A00BD22BA10B99
:1007AA00D22BA20BD22BE72B153087000230A200E6
:1007BA008630A1009930A000A00BE12BA10BE12B00
:1007CA00A20BE12B01308312A3070318A40A0030FD
:1007DA00A4072408803ADF0080305F02031DF72B4C
:1007EA0004302302031CFA2BFB2BC52BC22B002837
:0407FA008301BD2B8F
:02400E00953FDC
:00000001FF
